{
  "contractName": "SocialMediaPost",
  "abi": [
    {
      "inputs": [],
      "name": "postCount",
      "outputs": [
        {
          "internalType": "uint256",
          "name": "",
          "type": "uint256"
        }
      ],
      "stateMutability": "view",
      "type": "function"
    },
    {
      "inputs": [
        {
          "internalType": "uint256",
          "name": "",
          "type": "uint256"
        }
      ],
      "name": "posts",
      "outputs": [
        {
          "internalType": "uint256",
          "name": "id",
          "type": "uint256"
        },
        {
          "internalType": "string",
          "name": "content",
          "type": "string"
        },
        {
          "internalType": "address",
          "name": "owner",
          "type": "address"
        }
      ],
      "stateMutability": "view",
      "type": "function"
    },
    {
      "inputs": [
        {
          "internalType": "string",
          "name": "_content",
          "type": "string"
        }
      ],
      "name": "createPost",
      "outputs": [],
      "stateMutability": "nonpayable",
      "type": "function"
    },
    {
      "inputs": [
        {
          "internalType": "uint256",
          "name": "_id",
          "type": "uint256"
        }
      ],
      "name": "getPost",
      "outputs": [
        {
          "components": [
            {
              "internalType": "uint256",
              "name": "id",
              "type": "uint256"
            },
            {
              "internalType": "string",
              "name": "content",
              "type": "string"
            },
            {
              "internalType": "address",
              "name": "owner",
              "type": "address"
            }
          ],
          "internalType": "struct SocialMediaPost.Post",
          "name": "",
          "type": "tuple"
        }
      ],
      "stateMutability": "view",
      "type": "function"
    }
  ],
  "bytecode": "0x608060405234801561000f575f80fd5b50610bc08061001d5f395ff3fe608060405234801561000f575f80fd5b506004361061004a575f3560e01c80630b1e7f831461004e57806317906c2e1461008057806340731c241461009e578063c7303c61146100ce575b5f80fd5b6100686004803603810190610063919061044f565b6100ea565b60405161007793929190610552565b60405180910390f35b6100886101c3565b604051610095919061058e565b60405180910390f35b6100b860048036038101906100b3919061044f565b6101c9565b6040516100c5919061065a565b60405180910390f35b6100e860048036038101906100e391906107a6565b6102fc565b005b5f81815481106100f8575f80fd5b905f5260205f2090600302015f91509050805f01549080600101805461011d9061081a565b80601f01602080910402602001604051908101604052809291908181526020018280546101499061081a565b80156101945780601f1061016b57610100808354040283529160200191610194565b820191905f5260205f20905b81548152906001019060200180831161017757829003601f168201915b505050505090806002015f9054906101000a900473ffffffffffffffffffffffffffffffffffffffff16905083565b60015481565b6101d16103d6565b5f6001836101df9190610877565b815481106101f0576101ef6108aa565b5b905f5260205f2090600302016040518060600160405290815f82015481526020016001820180546102209061081a565b80601f016020809104026020016040519081016040528092919081815260200182805461024c9061081a565b80156102975780601f1061026e57610100808354040283529160200191610297565b820191905f5260205f20905b81548152906001019060200180831161027a57829003601f168201915b50505050508152602001600282015f9054906101000a900473ffffffffffffffffffffffffffffffffffffffff1673ffffffffffffffffffffffffffffffffffffffff1673ffffffffffffffffffffffffffffffffffffffff16815250509050919050565b60015f81548092919061030e906108d7565b91905055505f604051806060016040528060015481526020018381526020013373ffffffffffffffffffffffffffffffffffffffff16815250908060018154018082558091505060019003905f5260205f2090600302015f909190919091505f820151815f0155602082015181600101908161038a9190610abb565b506040820151816002015f6101000a81548173ffffffffffffffffffffffffffffffffffffffff021916908373ffffffffffffffffffffffffffffffffffffffff160217905550505050565b60405180606001604052805f8152602001606081526020015f73ffffffffffffffffffffffffffffffffffffffff1681525090565b5f604051905090565b5f80fd5b5f80fd5b5f819050919050565b61042e8161041c565b8114610438575f80fd5b50565b5f8135905061044981610425565b92915050565b5f6020828403121561046457610463610414565b5b5f6104718482850161043b565b91505092915050565b6104838161041c565b82525050565b5f81519050919050565b5f82825260208201905092915050565b5f5b838110156104c05780820151818401526020810190506104a5565b5f8484015250505050565b5f601f19601f8301169050919050565b5f6104e582610489565b6104ef8185610493565b93506104ff8185602086016104a3565b610508816104cb565b840191505092915050565b5f73ffffffffffffffffffffffffffffffffffffffff82169050919050565b5f61053c82610513565b9050919050565b61054c81610532565b82525050565b5f6060820190506105655f83018661047a565b818103602083015261057781856104db565b90506105866040830184610543565b949350505050565b5f6020820190506105a15f83018461047a565b92915050565b6105b08161041c565b82525050565b5f82825260208201905092915050565b5f6105d082610489565b6105da81856105b6565b93506105ea8185602086016104a3565b6105f3816104cb565b840191505092915050565b61060781610532565b82525050565b5f606083015f8301516106225f8601826105a7565b506020830151848203602086015261063a82826105c6565b915050604083015161064f60408601826105fe565b508091505092915050565b5f6020820190508181035f830152610672818461060d565b905092915050565b5f80fd5b5f80fd5b7f4e487b71000000000000000000000000000000000000000000000000000000005f52604160045260245ffd5b6106b8826104cb565b810181811067ffffffffffffffff821117156106d7576106d6610682565b5b80604052505050565b5f6106e961040b565b90506106f582826106af565b919050565b5f67ffffffffffffffff82111561071457610713610682565b5b61071d826104cb565b9050602081019050919050565b828183375f83830152505050565b5f61074a610745846106fa565b6106e0565b9050828152602081018484840111156107665761076561067e565b5b61077184828561072a565b509392505050565b5f82601f83011261078d5761078c61067a565b5b813561079d848260208601610738565b91505092915050565b5f602082840312156107bb576107ba610414565b5b5f82013567ffffffffffffffff8111156107d8576107d7610418565b5b6107e484828501610779565b91505092915050565b7f4e487b71000000000000000000000000000000000000000000000000000000005f52602260045260245ffd5b5f600282049050600182168061083157607f821691505b602082108103610844576108436107ed565b5b50919050565b7f4e487b71000000000000000000000000000000000000000000000000000000005f52601160045260245ffd5b5f6108818261041c565b915061088c8361041c565b92508282039050818111156108a4576108a361084a565b5b92915050565b7f4e487b71000000000000000000000000000000000000000000000000000000005f52603260045260245ffd5b5f6108e18261041c565b91507fffffffffffffffffffffffffffffffffffffffffffffffffffffffffffffffff82036109135761091261084a565b5b600182019050919050565b5f819050815f5260205f209050919050565b5f6020601f8301049050919050565b5f82821b905092915050565b5f6008830261097a7fffffffffffffffffffffffffffffffffffffffffffffffffffffffffffffffff8261093f565b610984868361093f565b95508019841693508086168417925050509392505050565b5f819050919050565b5f6109bf6109ba6109b58461041c565b61099c565b61041c565b9050919050565b5f819050919050565b6109d8836109a5565b6109ec6109e4826109c6565b84845461094b565b825550505050565b5f90565b610a006109f4565b610a0b8184846109cf565b505050565b5b81811015610a2e57610a235f826109f8565b600181019050610a11565b5050565b601f821115610a7357610a448161091e565b610a4d84610930565b81016020851015610a5c578190505b610a70610a6885610930565b830182610a10565b50505b505050565b5f82821c905092915050565b5f610a935f1984600802610a78565b1980831691505092915050565b5f610aab8383610a84565b9150826002028217905092915050565b610ac482610489565b67ffffffffffffffff811115610add57610adc610682565b5b610ae7825461081a565b610af2828285610a32565b5f60209050601f831160018114610b23575f8415610b11578287015190505b610b1b8582610aa0565b865550610b82565b601f198416610b318661091e565b5f5b82811015610b5857848901518255600182019150602085019450602081019050610b33565b86831015610b755784890151610b71601f891682610a84565b8355505b6001600288020188555050505b50505050505056fea26469706673582212206f1306f12752c1fd251868499ac8ef5c807aea9b2eab3cf753a28739df21f24364736f6c63430008150033",
  "immutableReferences": {},
  "source": "// SPDX-License-Identifier: Appache\r\npragma solidity ^0.8.0;\r\n\r\ncontract SocialMediaPost {\r\n    struct Post {\r\n        uint id;\r\n        string content;\r\n        address owner;\r\n    }\r\n\r\n    Post[] public posts;\r\n    uint public postCount;\r\n\r\n    function createPost(string memory _content) public {\r\n        postCount++;\r\n        posts.push(Post(postCount, _content, msg.sender));\r\n    }\r\n\r\n    function getPost(uint _id) public view returns (Post memory) {\r\n        return posts[_id - 1];\r\n    }\r\n}\r\n",
  "sourcePath": "C:\\Users\\91883\\Documents\\GitHub\\Trust-Chain-Quantathon-2.0\\reviewer\\contracts\\SocialMediaPost.sol",
  "compiler": {
    "name": "solc",
    "version": "0.8.21+commit.d9974bed.Emscripten.clang"
  },
  "schemaVersion": "3.4.16",
  "updatedAt": "2024-10-15T10:28:01.484Z",
  "devdoc": {
    "kind": "dev",
    "methods": {},
    "version": 1
  },
  "userdoc": {
    "kind": "user",
    "methods": {},
    "version": 1
  }
}