{
  "contractName": "SocialMediaPost",
  "abi": [
    {
      "inputs": [
        {
          "internalType": "address[]",
          "name": "_reviewers",
          "type": "address[]"
        }
      ],
      "stateMutability": "nonpayable",
      "type": "constructor"
    },
    {
      "anonymous": false,
      "inputs": [
        {
          "indexed": false,
          "internalType": "uint256",
          "name": "postId",
          "type": "uint256"
        },
        {
          "indexed": true,
          "internalType": "address",
          "name": "reviewer",
          "type": "address"
        },
        {
          "indexed": false,
          "internalType": "bool",
          "name": "flagged",
          "type": "bool"
        }
      ],
      "name": "PostReviewed",
      "type": "event"
    },
    {
      "anonymous": false,
      "inputs": [
        {
          "indexed": false,
          "internalType": "uint256",
          "name": "postId",
          "type": "uint256"
        },
        {
          "indexed": true,
          "internalType": "address",
          "name": "creator",
          "type": "address"
        },
        {
          "indexed": false,
          "internalType": "string",
          "name": "content",
          "type": "string"
        }
      ],
      "name": "PostSubmitted",
      "type": "event"
    },
    {
      "inputs": [
        {
          "internalType": "address",
          "name": "",
          "type": "address"
        }
      ],
      "name": "isReviewer",
      "outputs": [
        {
          "internalType": "bool",
          "name": "",
          "type": "bool"
        }
      ],
      "stateMutability": "view",
      "type": "function"
    },
    {
      "inputs": [
        {
          "internalType": "uint256",
          "name": "",
          "type": "uint256"
        }
      ],
      "name": "posts",
      "outputs": [
        {
          "internalType": "uint256",
          "name": "id",
          "type": "uint256"
        },
        {
          "internalType": "address",
          "name": "creator",
          "type": "address"
        },
        {
          "internalType": "string",
          "name": "content",
          "type": "string"
        },
        {
          "internalType": "bool",
          "name": "reviewed",
          "type": "bool"
        },
        {
          "internalType": "bool",
          "name": "flagged",
          "type": "bool"
        }
      ],
      "stateMutability": "view",
      "type": "function"
    },
    {
      "inputs": [
        {
          "internalType": "uint256",
          "name": "",
          "type": "uint256"
        }
      ],
      "name": "reviewers",
      "outputs": [
        {
          "internalType": "address",
          "name": "",
          "type": "address"
        }
      ],
      "stateMutability": "view",
      "type": "function"
    },
    {
      "inputs": [
        {
          "internalType": "string",
          "name": "_content",
          "type": "string"
        }
      ],
      "name": "submitPost",
      "outputs": [],
      "stateMutability": "nonpayable",
      "type": "function"
    },
    {
      "inputs": [
        {
          "internalType": "uint256",
          "name": "_postId",
          "type": "uint256"
        },
        {
          "internalType": "bool",
          "name": "_flagged",
          "type": "bool"
        }
      ],
      "name": "reviewPost",
      "outputs": [],
      "stateMutability": "nonpayable",
      "type": "function"
    },
    {
      "inputs": [
        {
          "internalType": "uint256",
          "name": "_postId",
          "type": "uint256"
        }
      ],
      "name": "getPost",
      "outputs": [
        {
          "components": [
            {
              "internalType": "uint256",
              "name": "id",
              "type": "uint256"
            },
            {
              "internalType": "address",
              "name": "creator",
              "type": "address"
            },
            {
              "internalType": "string",
              "name": "content",
              "type": "string"
            },
            {
              "internalType": "bool",
              "name": "reviewed",
              "type": "bool"
            },
            {
              "internalType": "bool",
              "name": "flagged",
              "type": "bool"
            }
          ],
          "internalType": "struct SocialMediaPost.Post",
          "name": "",
          "type": "tuple"
        }
      ],
      "stateMutability": "view",
      "type": "function"
    },
    {
      "inputs": [],
      "name": "getPostCount",
      "outputs": [
        {
          "internalType": "uint256",
          "name": "",
          "type": "uint256"
        }
      ],
      "stateMutability": "view",
      "type": "function"
    }
  ],
  "bytecode": "0x608060405234801562000010575f80fd5b506040516200162838038062001628833981810160405281019062000036919062000397565b80600190805190602001906200004e92919062000110565b505f5b6001805490508110156200010857600160025f600184815481106200007b576200007a620003e6565b5b905f5260205f20015f9054906101000a900473ffffffffffffffffffffffffffffffffffffffff1673ffffffffffffffffffffffffffffffffffffffff1673ffffffffffffffffffffffffffffffffffffffff1681526020019081526020015f205f6101000a81548160ff0219169083151502179055508080620000ff9062000449565b91505062000051565b505062000495565b828054828255905f5260205f2090810192821562000189579160200282015b8281111562000188578251825f6101000a81548173ffffffffffffffffffffffffffffffffffffffff021916908373ffffffffffffffffffffffffffffffffffffffff160217905550916020019190600101906200012f565b5b5090506200019891906200019c565b5090565b5b80821115620001b5575f815f9055506001016200019d565b5090565b5f604051905090565b5f80fd5b5f80fd5b5f80fd5b5f601f19601f8301169050919050565b7f4e487b71000000000000000000000000000000000000000000000000000000005f52604160045260245ffd5b6200021682620001ce565b810181811067ffffffffffffffff82111715620002385762000237620001de565b5b80604052505050565b5f6200024c620001b9565b90506200025a82826200020b565b919050565b5f67ffffffffffffffff8211156200027c576200027b620001de565b5b602082029050602081019050919050565b5f80fd5b5f73ffffffffffffffffffffffffffffffffffffffff82169050919050565b5f620002bc8262000291565b9050919050565b620002ce81620002b0565b8114620002d9575f80fd5b50565b5f81519050620002ec81620002c3565b92915050565b5f6200030862000302846200025f565b62000241565b905080838252602082019050602084028301858111156200032e576200032d6200028d565b5b835b818110156200035b5780620003468882620002dc565b84526020840193505060208101905062000330565b5050509392505050565b5f82601f8301126200037c576200037b620001ca565b5b81516200038e848260208601620002f2565b91505092915050565b5f60208284031215620003af57620003ae620001c2565b5b5f82015167ffffffffffffffff811115620003cf57620003ce620001c6565b5b620003dd8482850162000365565b91505092915050565b7f4e487b71000000000000000000000000000000000000000000000000000000005f52603260045260245ffd5b7f4e487b71000000000000000000000000000000000000000000000000000000005f52601160045260245ffd5b5f819050919050565b5f620004558262000440565b91507fffffffffffffffffffffffffffffffffffffffffffffffffffffffffffffffff82036200048a576200048962000413565b5b600182019050919050565b61118580620004a35f395ff3fe608060405234801561000f575f80fd5b506004361061007b575f3560e01c80639cc616f6116100595780639cc616f6146100ff578063a59977461461012f578063bcc954071461014b578063fdc6258a146101695761007b565b80630b1e7f831461007f57806340731c24146100b357806367f241b6146100e3575b5f80fd5b610099600480360381019061009491906107dc565b610199565b6040516100aa9594939291906108f9565b60405180910390f35b6100cd60048036038101906100c891906107dc565b610297565b6040516100da9190610a39565b60405180910390f35b6100fd60048036038101906100f89190610a83565b6103f3565b005b610119600480360381019061011491906107dc565b61057c565b6040516101269190610ac1565b60405180910390f35b61014960048036038101906101449190610c06565b6105b7565b005b61015361072b565b6040516101609190610c4d565b60405180910390f35b610183600480360381019061017e9190610c90565b610736565b6040516101909190610cbb565b60405180910390f35b5f81815481106101a7575f80fd5b905f5260205f2090600402015f91509050805f015490806001015f9054906101000a900473ffffffffffffffffffffffffffffffffffffffff16908060020180546101f190610d01565b80601f016020809104026020016040519081016040528092919081815260200182805461021d90610d01565b80156102685780601f1061023f57610100808354040283529160200191610268565b820191905f5260205f20905b81548152906001019060200180831161024b57829003601f168201915b505050505090806003015f9054906101000a900460ff16908060030160019054906101000a900460ff16905085565b61029f610753565b5f82815481106102b2576102b1610d31565b5b905f5260205f2090600402016040518060a00160405290815f8201548152602001600182015f9054906101000a900473ffffffffffffffffffffffffffffffffffffffff1673ffffffffffffffffffffffffffffffffffffffff1673ffffffffffffffffffffffffffffffffffffffff16815260200160028201805461033790610d01565b80601f016020809104026020016040519081016040528092919081815260200182805461036390610d01565b80156103ae5780601f10610385576101008083540402835291602001916103ae565b820191905f5260205f20905b81548152906001019060200180831161039157829003601f168201915b50505050508152602001600382015f9054906101000a900460ff161515151581526020016003820160019054906101000a900460ff1615151515815250509050919050565b60025f3373ffffffffffffffffffffffffffffffffffffffff1673ffffffffffffffffffffffffffffffffffffffff1681526020019081526020015f205f9054906101000a900460ff1661047c576040517f08c379a000000000000000000000000000000000000000000000000000000000815260040161047390610da8565b60405180910390fd5b5f8083815481106104905761048f610d31565b5b905f5260205f2090600402019050806003015f9054906101000a900460ff16156104ef576040517f08c379a00000000000000000000000000000000000000000000000000000000081526004016104e690610e10565b60405180910390fd5b6001816003015f6101000a81548160ff021916908315150217905550818160030160016101000a81548160ff0219169083151502179055503373ffffffffffffffffffffffffffffffffffffffff167fb954f14ad042730210caddb364f9f99a1b05aec7fe4146b5aa130444b437ef94848460405161056f929190610e2e565b60405180910390a2505050565b6001818154811061058b575f80fd5b905f5260205f20015f915054906101000a900473ffffffffffffffffffffffffffffffffffffffff1681565b5f6040518060a001604052805f8054905081526020013373ffffffffffffffffffffffffffffffffffffffff1681526020018381526020015f151581526020015f1515815250908060018154018082558091505060019003905f5260205f2090600402015f909190919091505f820151815f01556020820151816001015f6101000a81548173ffffffffffffffffffffffffffffffffffffffff021916908373ffffffffffffffffffffffffffffffffffffffff16021790555060408201518160020190816106869190610ff2565b506060820151816003015f6101000a81548160ff02191690831515021790555060808201518160030160016101000a81548160ff02191690831515021790555050503373ffffffffffffffffffffffffffffffffffffffff167f80170991229f531e5b28e31c3a2e55cd1fa077ccf9d6af8fdc85142983f9a81c60015f8054905061071191906110ee565b83604051610720929190611121565b60405180910390a250565b5f8080549050905090565b6002602052805f5260405f205f915054906101000a900460ff1681565b6040518060a001604052805f81526020015f73ffffffffffffffffffffffffffffffffffffffff168152602001606081526020015f151581526020015f151581525090565b5f604051905090565b5f80fd5b5f80fd5b5f819050919050565b6107bb816107a9565b81146107c5575f80fd5b50565b5f813590506107d6816107b2565b92915050565b5f602082840312156107f1576107f06107a1565b5b5f6107fe848285016107c8565b91505092915050565b610810816107a9565b82525050565b5f73ffffffffffffffffffffffffffffffffffffffff82169050919050565b5f61083f82610816565b9050919050565b61084f81610835565b82525050565b5f81519050919050565b5f82825260208201905092915050565b5f5b8381101561088c578082015181840152602081019050610871565b5f8484015250505050565b5f601f19601f8301169050919050565b5f6108b182610855565b6108bb818561085f565b93506108cb81856020860161086f565b6108d481610897565b840191505092915050565b5f8115159050919050565b6108f3816108df565b82525050565b5f60a08201905061090c5f830188610807565b6109196020830187610846565b818103604083015261092b81866108a7565b905061093a60608301856108ea565b61094760808301846108ea565b9695505050505050565b61095a816107a9565b82525050565b61096981610835565b82525050565b5f82825260208201905092915050565b5f61098982610855565b610993818561096f565b93506109a381856020860161086f565b6109ac81610897565b840191505092915050565b6109c0816108df565b82525050565b5f60a083015f8301516109db5f860182610951565b5060208301516109ee6020860182610960565b5060408301518482036040860152610a06828261097f565b9150506060830151610a1b60608601826109b7565b506080830151610a2e60808601826109b7565b508091505092915050565b5f6020820190508181035f830152610a5181846109c6565b905092915050565b610a62816108df565b8114610a6c575f80fd5b50565b5f81359050610a7d81610a59565b92915050565b5f8060408385031215610a9957610a986107a1565b5b5f610aa6858286016107c8565b9250506020610ab785828601610a6f565b9150509250929050565b5f602082019050610ad45f830184610846565b92915050565b5f80fd5b5f80fd5b7f4e487b71000000000000000000000000000000000000000000000000000000005f52604160045260245ffd5b610b1882610897565b810181811067ffffffffffffffff82111715610b3757610b36610ae2565b5b80604052505050565b5f610b49610798565b9050610b558282610b0f565b919050565b5f67ffffffffffffffff821115610b7457610b73610ae2565b5b610b7d82610897565b9050602081019050919050565b828183375f83830152505050565b5f610baa610ba584610b5a565b610b40565b905082815260208101848484011115610bc657610bc5610ade565b5b610bd1848285610b8a565b509392505050565b5f82601f830112610bed57610bec610ada565b5b8135610bfd848260208601610b98565b91505092915050565b5f60208284031215610c1b57610c1a6107a1565b5b5f82013567ffffffffffffffff811115610c3857610c376107a5565b5b610c4484828501610bd9565b91505092915050565b5f602082019050610c605f830184610807565b92915050565b610c6f81610835565b8114610c79575f80fd5b50565b5f81359050610c8a81610c66565b92915050565b5f60208284031215610ca557610ca46107a1565b5b5f610cb284828501610c7c565b91505092915050565b5f602082019050610cce5f8301846108ea565b92915050565b7f4e487b71000000000000000000000000000000000000000000000000000000005f52602260045260245ffd5b5f6002820490506001821680610d1857607f821691505b602082108103610d2b57610d2a610cd4565b5b50919050565b7f4e487b71000000000000000000000000000000000000000000000000000000005f52603260045260245ffd5b7f4f6e6c79207265766965776572732063616e2072657669657720706f737473005f82015250565b5f610d92601f8361085f565b9150610d9d82610d5e565b602082019050919050565b5f6020820190508181035f830152610dbf81610d86565b9050919050565b7f506f737420616c726561647920726576696577656400000000000000000000005f82015250565b5f610dfa60158361085f565b9150610e0582610dc6565b602082019050919050565b5f6020820190508181035f830152610e2781610dee565b9050919050565b5f604082019050610e415f830185610807565b610e4e60208301846108ea565b9392505050565b5f819050815f5260205f209050919050565b5f6020601f8301049050919050565b5f82821b905092915050565b5f60088302610eb17fffffffffffffffffffffffffffffffffffffffffffffffffffffffffffffffff82610e76565b610ebb8683610e76565b95508019841693508086168417925050509392505050565b5f819050919050565b5f610ef6610ef1610eec846107a9565b610ed3565b6107a9565b9050919050565b5f819050919050565b610f0f83610edc565b610f23610f1b82610efd565b848454610e82565b825550505050565b5f90565b610f37610f2b565b610f42818484610f06565b505050565b5b81811015610f6557610f5a5f82610f2f565b600181019050610f48565b5050565b601f821115610faa57610f7b81610e55565b610f8484610e67565b81016020851015610f93578190505b610fa7610f9f85610e67565b830182610f47565b50505b505050565b5f82821c905092915050565b5f610fca5f1984600802610faf565b1980831691505092915050565b5f610fe28383610fbb565b9150826002028217905092915050565b610ffb82610855565b67ffffffffffffffff81111561101457611013610ae2565b5b61101e8254610d01565b611029828285610f69565b5f60209050601f83116001811461105a575f8415611048578287015190505b6110528582610fd7565b8655506110b9565b601f19841661106886610e55565b5f5b8281101561108f5784890151825560018201915060208501945060208101905061106a565b868310156110ac57848901516110a8601f891682610fbb565b8355505b6001600288020188555050505b505050505050565b7f4e487b71000000000000000000000000000000000000000000000000000000005f52601160045260245ffd5b5f6110f8826107a9565b9150611103836107a9565b925082820390508181111561111b5761111a6110c1565b5b92915050565b5f6040820190506111345f830185610807565b818103602083015261114681846108a7565b9050939250505056fea26469706673582212207f39fbd63e3beb5e8c0f0fd6cf32c40136d512001f3f172c17e8e4f99a74361164736f6c63430008150033",
  "immutableReferences": {},
  "source": "// SPDX-License-Identifier: MIT\r\npragma solidity ^0.8.0;\r\n\r\ncontract SocialMediaPost {\r\n    \r\n    struct Post {\r\n        uint id;\r\n        address creator;\r\n        string content;\r\n        bool reviewed;\r\n        bool flagged;\r\n    }\r\n\r\n    Post[] public posts;\r\n    address[] public reviewers;\r\n    mapping(address => bool) public isReviewer;\r\n\r\n    event PostSubmitted(uint postId, address indexed creator, string content);\r\n    event PostReviewed(uint postId, address indexed reviewer, bool flagged);\r\n\r\n    constructor(address[] memory _reviewers) {\r\n        reviewers = _reviewers;\r\n        for (uint i = 0; i < reviewers.length; i++) {\r\n            isReviewer[reviewers[i]] = true;\r\n        }\r\n    }\r\n\r\n    function submitPost(string memory _content) public {\r\n        posts.push(Post(posts.length, msg.sender, _content, false, false));\r\n        emit PostSubmitted(posts.length - 1, msg.sender, _content);\r\n    }\r\n\r\n    function reviewPost(uint _postId, bool _flagged) public {\r\n        require(isReviewer[msg.sender], \"Only reviewers can review posts\");\r\n        Post storage post = posts[_postId];\r\n        require(!post.reviewed, \"Post already reviewed\");\r\n\r\n        post.reviewed = true;\r\n        post.flagged = _flagged;\r\n\r\n        emit PostReviewed(_postId, msg.sender, _flagged);\r\n    }\r\n\r\n    function getPost(uint _postId) public view returns (Post memory) {\r\n        return posts[_postId];\r\n    }\r\n\r\n    function getPostCount() public view returns (uint) {\r\n        return posts.length;\r\n    }\r\n}\r\n",
  "sourcePath": "C:\\Users\\91883\\Documents\\GitHub\\Trust-Chain-Quantathon-2.0\\reviewer\\contracts\\SocialMediaPost.sol",
  "compiler": {
    "name": "solc",
    "version": "0.8.21+commit.d9974bed.Emscripten.clang"
  },
  "schemaVersion": "3.4.16",
  "updatedAt": "2024-10-15T06:15:01.158Z",
  "devdoc": {
    "kind": "dev",
    "methods": {},
    "version": 1
  },
  "userdoc": {
    "kind": "user",
    "methods": {},
    "version": 1
  }
}